{
  "_format": "hh-sol-artifact-1",
  "contractName": "ZeroPartyData",
  "sourceName": "contracts/ZeroPartyData.sol",
  "abi": [
    {
      "inputs": [
        {
          "internalType": "address",
          "name": "_verifierAddr",
          "type": "address"
        }
      ],
      "stateMutability": "nonpayable",
      "type": "constructor"
    },
    {
      "anonymous": false,
      "inputs": [
        {
          "indexed": true,
          "internalType": "address",
          "name": "person",
          "type": "address"
        },
        {
          "indexed": true,
          "internalType": "bool",
          "name": "verfied",
          "type": "bool"
        }
      ],
      "name": "OfferEligibilityVerfied",
      "type": "event"
    },
    {
      "inputs": [
        {
          "internalType": "address",
          "name": "",
          "type": "address"
        }
      ],
      "name": "addressMapping",
      "outputs": [
        {
          "internalType": "bool",
          "name": "",
          "type": "bool"
        }
      ],
      "stateMutability": "view",
      "type": "function"
    },
    {
      "inputs": [
        {
          "internalType": "address",
          "name": "_user",
          "type": "address"
        }
      ],
      "name": "getVerficationStatus",
      "outputs": [
        {
          "internalType": "bool",
          "name": "",
          "type": "bool"
        }
      ],
      "stateMutability": "view",
      "type": "function"
    },
    {
      "inputs": [
        {
          "internalType": "bool",
          "name": "_status",
          "type": "bool"
        }
      ],
      "name": "setVerficationStatus",
      "outputs": [],
      "stateMutability": "nonpayable",
      "type": "function"
    },
    {
      "inputs": [],
      "name": "verifierAddr",
      "outputs": [
        {
          "internalType": "address",
          "name": "",
          "type": "address"
        }
      ],
      "stateMutability": "view",
      "type": "function"
    },
    {
      "inputs": [
        {
          "internalType": "uint256[2]",
          "name": "a",
          "type": "uint256[2]"
        },
        {
          "internalType": "uint256[2][2]",
          "name": "b",
          "type": "uint256[2][2]"
        },
        {
          "internalType": "uint256[2]",
          "name": "c",
          "type": "uint256[2]"
        },
        {
          "internalType": "uint256[4]",
          "name": "input",
          "type": "uint256[4]"
        }
      ],
      "name": "verifyUsingGroth",
      "outputs": [],
      "stateMutability": "nonpayable",
      "type": "function"
    }
  ],
  "bytecode": "0x608060405234801561001057600080fd5b50604051610d22380380610d22833981810160405281019061003291906100dc565b80600260006101000a81548173ffffffffffffffffffffffffffffffffffffffff021916908373ffffffffffffffffffffffffffffffffffffffff16021790555050610109565b600080fd5b600073ffffffffffffffffffffffffffffffffffffffff82169050919050565b60006100a98261007e565b9050919050565b6100b98161009e565b81146100c457600080fd5b50565b6000815190506100d6816100b0565b92915050565b6000602082840312156100f2576100f1610079565b5b6000610100848285016100c7565b91505092915050565b610c0a806101186000396000f3fe608060405234801561001057600080fd5b50600436106100575760003560e01c80630494cd9a1461005c578063663ea2e21461008c578063b2f36f94146100aa578063bb0da039146100c6578063e751d9ec146100f6575b600080fd5b6100766004803603810190610071919061044d565b610112565b6040516100839190610495565b60405180910390f35b610094610132565b6040516100a191906104bf565b60405180910390f35b6100c460048036038101906100bf9190610506565b610156565b005b6100e060048036038101906100db919061044d565b6101f6565b6040516100ed9190610495565b60405180910390f35b610110600480360381019061010b9190610812565b61024c565b005b60016020528060005260406000206000915054906101000a900460ff1681565b60008054906101000a900473ffffffffffffffffffffffffffffffffffffffff1681565b80600160003373ffffffffffffffffffffffffffffffffffffffff1673ffffffffffffffffffffffffffffffffffffffff16815260200190815260200160002060006101000a81548160ff0219169083151502179055508015153373ffffffffffffffffffffffffffffffffffffffff167f76c6e843c9ce47765a02971c71598110477c656e1f071c975f75dff7e644525860405160405180910390a350565b6000600160008373ffffffffffffffffffffffffffffffffffffffff1673ffffffffffffffffffffffffffffffffffffffff16815260200190815260200160002060009054906101000a900460ff169050919050565b600260009054906101000a900473ffffffffffffffffffffffffffffffffffffffff1673ffffffffffffffffffffffffffffffffffffffff16635fe8c13b858585856040518563ffffffff1660e01b81526004016102ad9493929190610aa8565b60206040518083038186803b1580156102c557600080fd5b505afa1580156102d9573d6000803e3d6000fd5b505050506040513d601f19601f820116820180604052508101906102fd9190610b04565b61033c576040517f08c379a000000000000000000000000000000000000000000000000000000000815260040161033390610bb4565b60405180910390fd5b60018060003373ffffffffffffffffffffffffffffffffffffffff1673ffffffffffffffffffffffffffffffffffffffff16815260200190815260200160002060006101000a81548160ff021916908315150217905550600115153373ffffffffffffffffffffffffffffffffffffffff167f76c6e843c9ce47765a02971c71598110477c656e1f071c975f75dff7e644525860405160405180910390a350505050565b6000604051905090565b600080fd5b600073ffffffffffffffffffffffffffffffffffffffff82169050919050565b600061041a826103ef565b9050919050565b61042a8161040f565b811461043557600080fd5b50565b60008135905061044781610421565b92915050565b600060208284031215610463576104626103ea565b5b600061047184828501610438565b91505092915050565b60008115159050919050565b61048f8161047a565b82525050565b60006020820190506104aa6000830184610486565b92915050565b6104b98161040f565b82525050565b60006020820190506104d460008301846104b0565b92915050565b6104e38161047a565b81146104ee57600080fd5b50565b600081359050610500816104da565b92915050565b60006020828403121561051c5761051b6103ea565b5b600061052a848285016104f1565b91505092915050565b600080fd5b6000601f19601f8301169050919050565b7f4e487b7100000000000000000000000000000000000000000000000000000000600052604160045260246000fd5b61058182610538565b810181811067ffffffffffffffff821117156105a05761059f610549565b5b80604052505050565b60006105b36103e0565b90506105bf8282610578565b919050565b600067ffffffffffffffff8211156105df576105de610549565b5b602082029050919050565b600080fd5b6000819050919050565b610602816105ef565b811461060d57600080fd5b50565b60008135905061061f816105f9565b92915050565b6000610638610633846105c4565b6105a9565b90508060208402830185811115610652576106516105ea565b5b835b8181101561067b57806106678882610610565b845260208401935050602081019050610654565b5050509392505050565b600082601f83011261069a57610699610533565b5b60026106a7848285610625565b91505092915050565b600067ffffffffffffffff8211156106cb576106ca610549565b5b602082029050919050565b60006106e96106e4846106b0565b6105a9565b90508060408402830185811115610703576107026105ea565b5b835b8181101561072c57806107188882610685565b845260208401935050604081019050610705565b5050509392505050565b600082601f83011261074b5761074a610533565b5b60026107588482856106d6565b91505092915050565b600067ffffffffffffffff82111561077c5761077b610549565b5b602082029050919050565b600061079a61079584610761565b6105a9565b905080602084028301858111156107b4576107b36105ea565b5b835b818110156107dd57806107c98882610610565b8452602084019350506020810190506107b6565b5050509392505050565b600082601f8301126107fc576107fb610533565b5b6004610809848285610787565b91505092915050565b600080600080610180858703121561082d5761082c6103ea565b5b600061083b87828801610685565b945050604061084c87828801610736565b93505060c061085d87828801610685565b92505061010061086f878288016107e7565b91505092959194509250565b600060029050919050565b600081905092915050565b6000819050919050565b6108a4816105ef565b82525050565b60006108b6838361089b565b60208301905092915050565b6000602082019050919050565b6108d88161087b565b6108e28184610886565b92506108ed82610891565b8060005b8381101561091e57815161090587826108aa565b9650610910836108c2565b9250506001810190506108f1565b505050505050565b600060029050919050565b600081905092915050565b6000819050919050565b600081905092915050565b61095a8161087b565b6109648184610946565b925061096f82610891565b8060005b838110156109a057815161098787826108aa565b9650610992836108c2565b925050600181019050610973565b505050505050565b60006109b48383610951565b60408301905092915050565b6000602082019050919050565b6109d681610926565b6109e08184610931565b92506109eb8261093c565b8060005b83811015610a1c578151610a0387826109a8565b9650610a0e836109c0565b9250506001810190506109ef565b505050505050565b600060049050919050565b600081905092915050565b6000819050919050565b6000602082019050919050565b610a5a81610a24565b610a648184610a2f565b9250610a6f82610a3a565b8060005b83811015610aa0578151610a8787826108aa565b9650610a9283610a44565b925050600181019050610a73565b505050505050565b600061018082019050610abe60008301876108cf565b610acb60408301866109cd565b610ad860c08301856108cf565b610ae6610100830184610a51565b95945050505050565b600081519050610afe816104da565b92915050565b600060208284031215610b1a57610b196103ea565b5b6000610b2884828501610aef565b91505092915050565b600082825260208201905092915050565b7f4e6f7420456c696769626c6520666f72206d656d62657273686970206f66666560008201527f7200000000000000000000000000000000000000000000000000000000000000602082015250565b6000610b9e602183610b31565b9150610ba982610b42565b604082019050919050565b60006020820190508181036000830152610bcd81610b91565b905091905056fea26469706673582212209e7edc11f0cf9933afe6965cbf310380a899facaef106fd7de42ccea03a5c82464736f6c63430008090033",
  "linkReferences": {},
  "deployedLinkReferences": {}
}